{
    "_format": "hh-sol-artifact-1",
    "contractName": "IdeaHunt",
    "sourceName": "contracts/IdeaHunt.sol",
    "abi": [
        {
            "inputs": [],
            "stateMutability": "nonpayable",
            "type": "constructor"
        },
        {
            "anonymous": false,
            "inputs": [
                {
                    "indexed": true,
                    "internalType": "address",
                    "name": "owner",
                    "type": "address"
                },
                {
                    "indexed": true,
                    "internalType": "address",
                    "name": "approved",
                    "type": "address"
                },
                {
                    "indexed": true,
                    "internalType": "uint256",
                    "name": "tokenId",
                    "type": "uint256"
                }
            ],
            "name": "Approval",
            "type": "event"
        },
        {
            "anonymous": false,
            "inputs": [
                {
                    "indexed": true,
                    "internalType": "address",
                    "name": "owner",
                    "type": "address"
                },
                {
                    "indexed": true,
                    "internalType": "address",
                    "name": "operator",
                    "type": "address"
                },
                {
                    "indexed": false,
                    "internalType": "bool",
                    "name": "approved",
                    "type": "bool"
                }
            ],
            "name": "ApprovalForAll",
            "type": "event"
        },
        {
            "anonymous": false,
            "inputs": [
                {
                    "indexed": false,
                    "internalType": "address",
                    "name": "owner",
                    "type": "address"
                },
                {
                    "indexed": false,
                    "internalType": "string",
                    "name": "idea",
                    "type": "string"
                },
                {
                    "indexed": false,
                    "internalType": "uint256",
                    "name": "uid",
                    "type": "uint256"
                }
            ],
            "name": "NewIdeaEvent",
            "type": "event"
        },
        {
            "anonymous": false,
            "inputs": [
                {
                    "indexed": true,
                    "internalType": "address",
                    "name": "from",
                    "type": "address"
                },
                {
                    "indexed": true,
                    "internalType": "address",
                    "name": "to",
                    "type": "address"
                },
                {
                    "indexed": true,
                    "internalType": "uint256",
                    "name": "tokenId",
                    "type": "uint256"
                }
            ],
            "name": "Transfer",
            "type": "event"
        },
        {
            "inputs": [
                {
                    "internalType": "string",
                    "name": "name",
                    "type": "string"
                },
                {
                    "internalType": "string",
                    "name": "description",
                    "type": "string"
                },
                {
                    "internalType": "address",
                    "name": "writerGateToken",
                    "type": "address"
                },
                {
                    "internalType": "address",
                    "name": "voterGateToken",
                    "type": "address"
                }
            ],
            "name": "addBoard",
            "outputs": [],
            "stateMutability": "nonpayable",
            "type": "function"
        },
        {
            "inputs": [
                {
                    "internalType": "uint256",
                    "name": "boardID",
                    "type": "uint256"
                },
                {
                    "internalType": "string",
                    "name": "ideaDescription",
                    "type": "string"
                },
                {
                    "internalType": "string",
                    "name": "ideaLink",
                    "type": "string"
                }
            ],
            "name": "addIdea",
            "outputs": [],
            "stateMutability": "nonpayable",
            "type": "function"
        },
        {
            "inputs": [
                {
                    "internalType": "address",
                    "name": "to",
                    "type": "address"
                },
                {
                    "internalType": "uint256",
                    "name": "tokenId",
                    "type": "uint256"
                }
            ],
            "name": "approve",
            "outputs": [],
            "stateMutability": "nonpayable",
            "type": "function"
        },
        {
            "inputs": [
                {
                    "internalType": "address",
                    "name": "owner",
                    "type": "address"
                }
            ],
            "name": "balanceOf",
            "outputs": [
                {
                    "internalType": "uint256",
                    "name": "",
                    "type": "uint256"
                }
            ],
            "stateMutability": "view",
            "type": "function"
        },
        {
            "inputs": [
                {
                    "internalType": "uint256",
                    "name": "boardID",
                    "type": "uint256"
                },
                {
                    "internalType": "uint256",
                    "name": "uid",
                    "type": "uint256"
                }
            ],
            "name": "canVote",
            "outputs": [
                {
                    "internalType": "bool",
                    "name": "",
                    "type": "bool"
                }
            ],
            "stateMutability": "view",
            "type": "function"
        },
        {
            "inputs": [
                {
                    "internalType": "uint256",
                    "name": "boardID",
                    "type": "uint256"
                }
            ],
            "name": "canVoteInBoard",
            "outputs": [
                {
                    "internalType": "bool",
                    "name": "",
                    "type": "bool"
                }
            ],
            "stateMutability": "view",
            "type": "function"
        },
        {
            "inputs": [
                {
                    "internalType": "uint256",
                    "name": "boardID",
                    "type": "uint256"
                }
            ],
            "name": "canWrite",
            "outputs": [
                {
                    "internalType": "bool",
                    "name": "",
                    "type": "bool"
                }
            ],
            "stateMutability": "view",
            "type": "function"
        },
        {
            "inputs": [
                {
                    "internalType": "uint256",
                    "name": "boardID",
                    "type": "uint256"
                }
            ],
            "name": "closeBoard",
            "outputs": [],
            "stateMutability": "nonpayable",
            "type": "function"
        },
        {
            "inputs": [
                {
                    "internalType": "uint256",
                    "name": "tokenId",
                    "type": "uint256"
                }
            ],
            "name": "getApproved",
            "outputs": [
                {
                    "internalType": "address",
                    "name": "",
                    "type": "address"
                }
            ],
            "stateMutability": "view",
            "type": "function"
        },
        {
            "inputs": [],
            "name": "getBoards",
            "outputs": [
                {
                    "components": [
                        {
                            "internalType": "string",
                            "name": "name",
                            "type": "string"
                        },
                        {
                            "internalType": "string",
                            "name": "description",
                            "type": "string"
                        },
                        {
                            "internalType": "address",
                            "name": "voterGateToken",
                            "type": "address"
                        },
                        {
                            "internalType": "address",
                            "name": "writerGateToken",
                            "type": "address"
                        },
                        {
                            "internalType": "bool",
                            "name": "open",
                            "type": "bool"
                        },
                        {
                            "internalType": "address",
                            "name": "admin",
                            "type": "address"
                        }
                    ],
                    "internalType": "struct IdeaHunt.Board[]",
                    "name": "",
                    "type": "tuple[]"
                }
            ],
            "stateMutability": "view",
            "type": "function"
        },
        {
            "inputs": [
                {
                    "internalType": "uint256",
                    "name": "boardID",
                    "type": "uint256"
                }
            ],
            "name": "getIdeas",
            "outputs": [
                {
                    "components": [
                        {
                            "internalType": "string",
                            "name": "idea",
                            "type": "string"
                        },
                        {
                            "internalType": "string",
                            "name": "link",
                            "type": "string"
                        },
                        {
                            "internalType": "uint256",
                            "name": "votes",
                            "type": "uint256"
                        },
                        {
                            "internalType": "address",
                            "name": "owner",
                            "type": "address"
                        },
                        {
                            "internalType": "uint256",
                            "name": "boardID",
                            "type": "uint256"
                        },
                        {
                            "internalType": "uint256",
                            "name": "uid",
                            "type": "uint256"
                        },
                        {
                            "internalType": "bool",
                            "name": "voted",
                            "type": "bool"
                        }
                    ],
                    "internalType": "struct IdeaHunt.IdeaDTO[]",
                    "name": "",
                    "type": "tuple[]"
                }
            ],
            "stateMutability": "view",
            "type": "function"
        },
        {
            "inputs": [],
            "name": "getUserIdeas",
            "outputs": [
                {
                    "components": [
                        {
                            "internalType": "string",
                            "name": "idea",
                            "type": "string"
                        },
                        {
                            "internalType": "string",
                            "name": "link",
                            "type": "string"
                        },
                        {
                            "internalType": "uint256",
                            "name": "votes",
                            "type": "uint256"
                        },
                        {
                            "internalType": "address",
                            "name": "owner",
                            "type": "address"
                        },
                        {
                            "internalType": "uint256",
                            "name": "boardID",
                            "type": "uint256"
                        },
                        {
                            "internalType": "uint256",
                            "name": "uid",
                            "type": "uint256"
                        },
                        {
                            "internalType": "bool",
                            "name": "voted",
                            "type": "bool"
                        }
                    ],
                    "internalType": "struct IdeaHunt.IdeaDTO[]",
                    "name": "",
                    "type": "tuple[]"
                }
            ],
            "stateMutability": "view",
            "type": "function"
        },
        {
            "inputs": [
                {
                    "internalType": "address",
                    "name": "owner",
                    "type": "address"
                },
                {
                    "internalType": "address",
                    "name": "operator",
                    "type": "address"
                }
            ],
            "name": "isApprovedForAll",
            "outputs": [
                {
                    "internalType": "bool",
                    "name": "",
                    "type": "bool"
                }
            ],
            "stateMutability": "view",
            "type": "function"
        },
        {
            "inputs": [],
            "name": "isHunter",
            "outputs": [
                {
                    "internalType": "bool",
                    "name": "",
                    "type": "bool"
                }
            ],
            "stateMutability": "view",
            "type": "function"
        },
        {
            "inputs": [],
            "name": "mintHunterToken",
            "outputs": [],
            "stateMutability": "nonpayable",
            "type": "function"
        },
        {
            "inputs": [],
            "name": "name",
            "outputs": [
                {
                    "internalType": "string",
                    "name": "",
                    "type": "string"
                }
            ],
            "stateMutability": "view",
            "type": "function"
        },
        {
            "inputs": [
                {
                    "internalType": "uint256",
                    "name": "tokenId",
                    "type": "uint256"
                }
            ],
            "name": "ownerOf",
            "outputs": [
                {
                    "internalType": "address",
                    "name": "",
                    "type": "address"
                }
            ],
            "stateMutability": "view",
            "type": "function"
        },
        {
            "inputs": [
                {
                    "internalType": "address",
                    "name": "from",
                    "type": "address"
                },
                {
                    "internalType": "address",
                    "name": "to",
                    "type": "address"
                },
                {
                    "internalType": "uint256",
                    "name": "tokenId",
                    "type": "uint256"
                }
            ],
            "name": "safeTransferFrom",
            "outputs": [],
            "stateMutability": "nonpayable",
            "type": "function"
        },
        {
            "inputs": [
                {
                    "internalType": "address",
                    "name": "from",
                    "type": "address"
                },
                {
                    "internalType": "address",
                    "name": "to",
                    "type": "address"
                },
                {
                    "internalType": "uint256",
                    "name": "tokenId",
                    "type": "uint256"
                },
                {
                    "internalType": "bytes",
                    "name": "_data",
                    "type": "bytes"
                }
            ],
            "name": "safeTransferFrom",
            "outputs": [],
            "stateMutability": "nonpayable",
            "type": "function"
        },
        {
            "inputs": [
                {
                    "internalType": "address",
                    "name": "operator",
                    "type": "address"
                },
                {
                    "internalType": "bool",
                    "name": "approved",
                    "type": "bool"
                }
            ],
            "name": "setApprovalForAll",
            "outputs": [],
            "stateMutability": "nonpayable",
            "type": "function"
        },
        {
            "inputs": [
                {
                    "internalType": "bytes4",
                    "name": "interfaceId",
                    "type": "bytes4"
                }
            ],
            "name": "supportsInterface",
            "outputs": [
                {
                    "internalType": "bool",
                    "name": "",
                    "type": "bool"
                }
            ],
            "stateMutability": "view",
            "type": "function"
        },
        {
            "inputs": [],
            "name": "symbol",
            "outputs": [
                {
                    "internalType": "string",
                    "name": "",
                    "type": "string"
                }
            ],
            "stateMutability": "view",
            "type": "function"
        },
        {
            "inputs": [
                {
                    "internalType": "uint256",
                    "name": "tokenId",
                    "type": "uint256"
                }
            ],
            "name": "tokenURI",
            "outputs": [
                {
                    "internalType": "string",
                    "name": "",
                    "type": "string"
                }
            ],
            "stateMutability": "view",
            "type": "function"
        },
        {
            "inputs": [
                {
                    "internalType": "address",
                    "name": "from",
                    "type": "address"
                },
                {
                    "internalType": "address",
                    "name": "to",
                    "type": "address"
                },
                {
                    "internalType": "uint256",
                    "name": "tokenId",
                    "type": "uint256"
                }
            ],
            "name": "transferFrom",
            "outputs": [],
            "stateMutability": "nonpayable",
            "type": "function"
        },
        {
            "inputs": [
                {
                    "internalType": "uint256",
                    "name": "boardID",
                    "type": "uint256"
                },
                {
                    "internalType": "uint256",
                    "name": "uid",
                    "type": "uint256"
                }
            ],
            "name": "vote",
            "outputs": [],
            "stateMutability": "nonpayable",
            "type": "function"
        }
    ],
    "bytecode": "0x60806040523480156200001157600080fd5b506040518060400160405280600a81526020017f4964656148756e746572000000000000000000000000000000000000000000008152506040518060400160405280600381526020017f4948540000000000000000000000000000000000000000000000000000000000815250816000908051906020019062000096929190620002e0565b508060019080519060200190620000af929190620002e0565b50505060006040518060c001604052806040518060400160405280600f81526020017f546865204461696c7920426f617264000000000000000000000000000000000081525081526020016040518060800160405280604c815260200162005f51604c91398152602001600073ffffffffffffffffffffffffffffffffffffffff168152602001600073ffffffffffffffffffffffffffffffffffffffff1681526020016001151581526020013373ffffffffffffffffffffffffffffffffffffffff16815250905060088190806001815401808255809150506001900390600052602060002090600502016000909190919091506000820151816000019080519060200190620001c2929190620002e0565b506020820151816001019080519060200190620001e1929190620002e0565b5060408201518160020160006101000a81548173ffffffffffffffffffffffffffffffffffffffff021916908373ffffffffffffffffffffffffffffffffffffffff16021790555060608201518160030160006101000a81548173ffffffffffffffffffffffffffffffffffffffff021916908373ffffffffffffffffffffffffffffffffffffffff16021790555060808201518160030160146101000a81548160ff02191690831515021790555060a08201518160040160006101000a81548173ffffffffffffffffffffffffffffffffffffffff021916908373ffffffffffffffffffffffffffffffffffffffff160217905550505050620003f5565b828054620002ee9062000390565b90600052602060002090601f0160209004810192826200031257600085556200035e565b82601f106200032d57805160ff19168380011785556200035e565b828001600101855582156200035e579182015b828111156200035d57825182559160200191906001019062000340565b5b5090506200036d919062000371565b5090565b5b808211156200038c57600081600090555060010162000372565b5090565b60006002820490506001821680620003a957607f821691505b60208210811415620003c057620003bf620003c6565b5b50919050565b7f4e487b7100000000000000000000000000000000000000000000000000000000600052602260045260246000fd5b615b4c80620004056000396000f3fe608060405234801561001057600080fd5b50600436106101735760003560e01c806373623939116100de578063ab977e0211610097578063c87b56dd11610071578063c87b56dd1461045a578063e985e9c51461048a578063ef233c0b146104ba578063fce4ad68146104ea57610173565b8063ab977e0214610404578063b384abef14610422578063b88d4fde1461043e57610173565b806373623939146103305780637d8aa2b71461036057806383f4c6e91461039057806395d89b41146103ae5780639d76918b146103cc578063a22cb465146103e857610173565b806323b872dd1161013057806323b872dd1461024c5780632433019d146102685780632ef573cd1461028457806342842e0e146102b45780636352211e146102d057806370a082311461030057610173565b806301ffc9a71461017857806306fdde03146101a8578063081812fc146101c6578063095ea7b3146101f657806315aa0a5014610212578063210c1f2914610230575b600080fd5b610192600480360381019061018d9190614300565b6104f4565b60405161019f9190614cc2565b60405180910390f35b6101b06105d6565b6040516101bd9190614cdd565b60405180910390f35b6101e060048036038101906101db91906143e5565b610668565b6040516101ed9190614bd9565b60405180910390f35b610210600480360381019061020b91906142c4565b6106ed565b005b61021a610805565b6040516102279190614c7e565b60405180910390f35b61024a600480360381019061024591906143e5565b610aa5565b005b610266600480360381019061026191906141be565b610c2c565b005b610282600480360381019061027d9190614352565b610c8c565b005b61029e600480360381019061029991906143e5565b61104d565b6040516102ab9190614cc2565b60405180910390f35b6102ce60048036038101906102c991906141be565b611484565b005b6102ea60048036038101906102e591906143e5565b6114a4565b6040516102f79190614bd9565b60405180910390f35b61031a60048036038101906103159190614159565b611556565b6040516103279190614fff565b60405180910390f35b61034a600480360381019061034591906143e5565b61160e565b6040516103579190614cc2565b60405180910390f35b61037a600480360381019061037591906143e5565b611a45565b6040516103879190614ca0565b60405180910390f35b610398611ea6565b6040516103a59190614ca0565b60405180910390f35b6103b66123ee565b6040516103c39190614cdd565b60405180910390f35b6103e660048036038101906103e19190614437565b612480565b005b61040260048036038101906103fd9190614288565b612639565b005b61040c61264f565b6040516104199190614cc2565b60405180910390f35b61043c600480360381019061043791906144b6565b612661565b005b6104586004803603810190610453919061420d565b61279e565b005b610474600480360381019061046f91906143e5565b612800565b6040516104819190614cdd565b60405180910390f35b6104a4600480360381019061049f9190614182565b612952565b6040516104b19190614cc2565b60405180910390f35b6104d460048036038101906104cf91906144b6565b6129e6565b6040516104e19190614cc2565b60405180910390f35b6104f26130a7565b005b60007f80ac58cd000000000000000000000000000000000000000000000000000000007bffffffffffffffffffffffffffffffffffffffffffffffffffffffff1916827bffffffffffffffffffffffffffffffffffffffffffffffffffffffff191614806105bf57507f5b5e139f000000000000000000000000000000000000000000000000000000007bffffffffffffffffffffffffffffffffffffffffffffffffffffffff1916827bffffffffffffffffffffffffffffffffffffffffffffffffffffffff1916145b806105cf57506105ce826131cd565b5b9050919050565b6060600080546105e5906152d8565b80601f0160208091040260200160405190810160405280929190818152602001828054610611906152d8565b801561065e5780601f106106335761010080835404028352916020019161065e565b820191906000526020600020905b81548152906001019060200180831161064157829003601f168201915b5050505050905090565b600061067382613237565b6106b2576040517f08c379a00000000000000000000000000000000000000000000000000000000081526004016106a990614f5f565b60405180910390fd5b6004600083815260200190815260200160002060009054906101000a900473ffffffffffffffffffffffffffffffffffffffff169050919050565b60006106f8826114a4565b90508073ffffffffffffffffffffffffffffffffffffffff168373ffffffffffffffffffffffffffffffffffffffff161415610769576040517f08c379a000000000000000000000000000000000000000000000000000000000815260040161076090614f9f565b60405180910390fd5b8073ffffffffffffffffffffffffffffffffffffffff166107886132a3565b73ffffffffffffffffffffffffffffffffffffffff1614806107b757506107b6816107b16132a3565b612952565b5b6107f6576040517f08c379a00000000000000000000000000000000000000000000000000000000081526004016107ed90614e5f565b60405180910390fd5b61080083836132ab565b505050565b60606008805480602002602001604051908101604052809291908181526020016000905b82821015610a9c57838290600052602060002090600502016040518060c001604052908160008201805461085c906152d8565b80601f0160208091040260200160405190810160405280929190818152602001828054610888906152d8565b80156108d55780601f106108aa576101008083540402835291602001916108d5565b820191906000526020600020905b8154815290600101906020018083116108b857829003601f168201915b505050505081526020016001820180546108ee906152d8565b80601f016020809104026020016040519081016040528092919081815260200182805461091a906152d8565b80156109675780601f1061093c57610100808354040283529160200191610967565b820191906000526020600020905b81548152906001019060200180831161094a57829003601f168201915b505050505081526020016002820160009054906101000a900473ffffffffffffffffffffffffffffffffffffffff1673ffffffffffffffffffffffffffffffffffffffff1673ffffffffffffffffffffffffffffffffffffffff1681526020016003820160009054906101000a900473ffffffffffffffffffffffffffffffffffffffff1673ffffffffffffffffffffffffffffffffffffffff1673ffffffffffffffffffffffffffffffffffffffff1681526020016003820160149054906101000a900460ff161515151581526020016004820160009054906101000a900473ffffffffffffffffffffffffffffffffffffffff1673ffffffffffffffffffffffffffffffffffffffff1673ffffffffffffffffffffffffffffffffffffffff168152505081526020019060010190610829565b50505050905090565b6008805490508110610aec576040517f08c379a0000000000000000000000000000000000000000000000000000000008152600401610ae390614e7f565b60405180910390fd5b3373ffffffffffffffffffffffffffffffffffffffff1660088281548110610b3d577f4e487b7100000000000000000000000000000000000000000000000000000000600052603260045260246000fd5b906000526020600020906005020160040160009054906101000a900473ffffffffffffffffffffffffffffffffffffffff1673ffffffffffffffffffffffffffffffffffffffff1614610bc5576040517f08c379a0000000000000000000000000000000000000000000000000000000008152600401610bbc90614dbf565b60405180910390fd5b600060088281548110610c01577f4e487b7100000000000000000000000000000000000000000000000000000000600052603260045260246000fd5b906000526020600020906005020160030160146101000a81548160ff02191690831515021790555050565b610c3d610c376132a3565b82613364565b610c7c576040517f08c379a0000000000000000000000000000000000000000000000000000000008152600401610c7390614fbf565b60405180910390fd5b610c87838383613442565b505050565b610c9461264f565b610cd3576040517f08c379a0000000000000000000000000000000000000000000000000000000008152600401610cca90614ddf565b60405180910390fd5b60006040518060c001604052808681526020018581526020018473ffffffffffffffffffffffffffffffffffffffff1681526020018373ffffffffffffffffffffffffffffffffffffffff1681526020016001151581526020013373ffffffffffffffffffffffffffffffffffffffff16815250905060088190806001815401808255809150506001900390600052602060002090600502016000909190919091506000820151816000019080519060200190610d91929190613f13565b506020820151816001019080519060200190610dae929190613f13565b5060408201518160020160006101000a81548173ffffffffffffffffffffffffffffffffffffffff021916908373ffffffffffffffffffffffffffffffffffffffff16021790555060608201518160030160006101000a81548173ffffffffffffffffffffffffffffffffffffffff021916908373ffffffffffffffffffffffffffffffffffffffff16021790555060808201518160030160146101000a81548160ff02191690831515021790555060a08201518160040160006101000a81548173ffffffffffffffffffffffffffffffffffffffff021916908373ffffffffffffffffffffffffffffffffffffffff1602179055505050600073ffffffffffffffffffffffffffffffffffffffff168373ffffffffffffffffffffffffffffffffffffffff1614610f595782600b60008573ffffffffffffffffffffffffffffffffffffffff1673ffffffffffffffffffffffffffffffffffffffff16815260200190815260200160002060006101000a81548173ffffffffffffffffffffffffffffffffffffffff021916908373ffffffffffffffffffffffffffffffffffffffff1602179055505b600073ffffffffffffffffffffffffffffffffffffffff168273ffffffffffffffffffffffffffffffffffffffff1614158015610fc257508273ffffffffffffffffffffffffffffffffffffffff168273ffffffffffffffffffffffffffffffffffffffff1614155b156110465781600b60008473ffffffffffffffffffffffffffffffffffffffff1673ffffffffffffffffffffffffffffffffffffffff16815260200190815260200160002060006101000a81548173ffffffffffffffffffffffffffffffffffffffff021916908373ffffffffffffffffffffffffffffffffffffffff1602179055505b5050505050565b60006008805490508210611096576040517f08c379a000000000000000000000000000000000000000000000000000000000815260040161108d90614e7f565b60405180910390fd5b6000600883815481106110d2577f4e487b7100000000000000000000000000000000000000000000000000000000600052603260045260246000fd5b90600052602060002090600502016040518060c00160405290816000820180546110fb906152d8565b80601f0160208091040260200160405190810160405280929190818152602001828054611127906152d8565b80156111745780601f1061114957610100808354040283529160200191611174565b820191906000526020600020905b81548152906001019060200180831161115757829003601f168201915b5050505050815260200160018201805461118d906152d8565b80601f01602080910402602001604051908101604052809291908181526020018280546111b9906152d8565b80156112065780601f106111db57610100808354040283529160200191611206565b820191906000526020600020905b8154815290600101906020018083116111e957829003601f168201915b505050505081526020016002820160009054906101000a900473ffffffffffffffffffffffffffffffffffffffff1673ffffffffffffffffffffffffffffffffffffffff1673ffffffffffffffffffffffffffffffffffffffff1681526020016003820160009054906101000a900473ffffffffffffffffffffffffffffffffffffffff1673ffffffffffffffffffffffffffffffffffffffff1673ffffffffffffffffffffffffffffffffffffffff1681526020016003820160149054906101000a900460ff161515151581526020016004820160009054906101000a900473ffffffffffffffffffffffffffffffffffffffff1673ffffffffffffffffffffffffffffffffffffffff1673ffffffffffffffffffffffffffffffffffffffff1681525050905060008073ffffffffffffffffffffffffffffffffffffffff16826060015173ffffffffffffffffffffffffffffffffffffffff16141561137b57600061137333611556565b11905061146d565b6000600b6000846060015173ffffffffffffffffffffffffffffffffffffffff1673ffffffffffffffffffffffffffffffffffffffff16815260200190815260200160002060009054906101000a900473ffffffffffffffffffffffffffffffffffffffff1673ffffffffffffffffffffffffffffffffffffffff166370a08231336040518263ffffffff1660e01b81526004016114199190614bd9565b60206040518083038186803b15801561143157600080fd5b505afa158015611445573d6000803e3d6000fd5b505050506040513d601f19601f82011682018060405250810190611469919061440e565b1190505b8160800151801561147b5750805b92505050919050565b61149f8383836040518060200160405280600081525061279e565b505050565b6000806002600084815260200190815260200160002060009054906101000a900473ffffffffffffffffffffffffffffffffffffffff169050600073ffffffffffffffffffffffffffffffffffffffff168173ffffffffffffffffffffffffffffffffffffffff16141561154d576040517f08c379a000000000000000000000000000000000000000000000000000000000815260040161154490614ebf565b60405180910390fd5b80915050919050565b60008073ffffffffffffffffffffffffffffffffffffffff168273ffffffffffffffffffffffffffffffffffffffff1614156115c7576040517f08c379a00000000000000000000000000000000000000000000000000000000081526004016115be90614e9f565b60405180910390fd5b600360008373ffffffffffffffffffffffffffffffffffffffff1673ffffffffffffffffffffffffffffffffffffffff168152602001908152602001600020549050919050565b60006008805490508210611657576040517f08c379a000000000000000000000000000000000000000000000000000000000815260040161164e90614e7f565b60405180910390fd5b600060088381548110611693577f4e487b7100000000000000000000000000000000000000000000000000000000600052603260045260246000fd5b90600052602060002090600502016040518060c00160405290816000820180546116bc906152d8565b80601f01602080910402602001604051908101604052809291908181526020018280546116e8906152d8565b80156117355780601f1061170a57610100808354040283529160200191611735565b820191906000526020600020905b81548152906001019060200180831161171857829003601f168201915b5050505050815260200160018201805461174e906152d8565b80601f016020809104026020016040519081016040528092919081815260200182805461177a906152d8565b80156117c75780601f1061179c576101008083540402835291602001916117c7565b820191906000526020600020905b8154815290600101906020018083116117aa57829003601f168201915b505050505081526020016002820160009054906101000a900473ffffffffffffffffffffffffffffffffffffffff1673ffffffffffffffffffffffffffffffffffffffff1673ffffffffffffffffffffffffffffffffffffffff1681526020016003820160009054906101000a900473ffffffffffffffffffffffffffffffffffffffff1673ffffffffffffffffffffffffffffffffffffffff1673ffffffffffffffffffffffffffffffffffffffff1681526020016003820160149054906101000a900460ff161515151581526020016004820160009054906101000a900473ffffffffffffffffffffffffffffffffffffffff1673ffffffffffffffffffffffffffffffffffffffff1673ffffffffffffffffffffffffffffffffffffffff1681525050905060008073ffffffffffffffffffffffffffffffffffffffff16826040015173ffffffffffffffffffffffffffffffffffffffff16141561193c57600061193433611556565b119050611a2e565b6000600b6000846040015173ffffffffffffffffffffffffffffffffffffffff1673ffffffffffffffffffffffffffffffffffffffff16815260200190815260200160002060009054906101000a900473ffffffffffffffffffffffffffffffffffffffff1673ffffffffffffffffffffffffffffffffffffffff166370a08231336040518263ffffffff1660e01b81526004016119da9190614bd9565b60206040518083038186803b1580156119f257600080fd5b505afa158015611a06573d6000803e3d6000fd5b505050506040513d601f19601f82011682018060405250810190611a2a919061440e565b1190505b81608001518015611a3c5750805b92505050919050565b606060006009600084815260200190815260200160002080549050905060008167ffffffffffffffff811115611aa4577f4e487b7100000000000000000000000000000000000000000000000000000000600052604160045260246000fd5b604051908082528060200260200182016040528015611add57816020015b611aca613f99565b815260200190600190039081611ac25790505b50905060005b82811015611e9b576040518060e00160405280600960008881526020019081526020016000208381548110611b41577f4e487b7100000000000000000000000000000000000000000000000000000000600052603260045260246000fd5b90600052602060002090600402016000018054611b5d906152d8565b80601f0160208091040260200160405190810160405280929190818152602001828054611b89906152d8565b8015611bd65780601f10611bab57610100808354040283529160200191611bd6565b820191906000526020600020905b815481529060010190602001808311611bb957829003601f168201915b50505050508152602001600960008881526020019081526020016000208381548110611c2b577f4e487b7100000000000000000000000000000000000000000000000000000000600052603260045260246000fd5b90600052602060002090600402016001018054611c47906152d8565b80601f0160208091040260200160405190810160405280929190818152602001828054611c73906152d8565b8015611cc05780601f10611c9557610100808354040283529160200191611cc0565b820191906000526020600020905b815481529060010190602001808311611ca357829003601f168201915b50505050508152602001600960008881526020019081526020016000208381548110611d15577f4e487b7100000000000000000000000000000000000000000000000000000000600052603260045260246000fd5b9060005260206000209060040201600201548152602001600960008881526020019081526020016000208381548110611d77577f4e487b7100000000000000000000000000000000000000000000000000000000600052603260045260246000fd5b906000526020600020906004020160030160009054906101000a900473ffffffffffffffffffffffffffffffffffffffff1673ffffffffffffffffffffffffffffffffffffffff168152602001868152602001828152602001600a600088815260200190815260200160002060003373ffffffffffffffffffffffffffffffffffffffff1673ffffffffffffffffffffffffffffffffffffffff168152602001908152602001600020600084815260200190815260200160002060009054906101000a900460ff161515815250828281518110611e7d577f4e487b7100000000000000000000000000000000000000000000000000000000600052603260045260246000fd5b60200260200101819052508080611e939061533b565b915050611ae3565b508092505050919050565b60606000805b600880549050811015611fc05760005b6009600083815260200190815260200160002080549050811015611fac573373ffffffffffffffffffffffffffffffffffffffff16600960008481526020019081526020016000208281548110611f3c577f4e487b7100000000000000000000000000000000000000000000000000000000600052603260045260246000fd5b906000526020600020906004020160030160009054906101000a900473ffffffffffffffffffffffffffffffffffffffff1673ffffffffffffffffffffffffffffffffffffffff161415611f99578280611f959061533b565b9350505b8080611fa49061533b565b915050611ebc565b508080611fb89061533b565b915050611eac565b5060008167ffffffffffffffff811115612003577f4e487b7100000000000000000000000000000000000000000000000000000000600052604160045260246000fd5b60405190808252806020026020018201604052801561203c57816020015b612029613f99565b8152602001906001900390816120215790505b5090506000805b6008805490508110156123e45760005b60096000838152602001908152602001600020805490508110156123d0573373ffffffffffffffffffffffffffffffffffffffff166009600084815260200190815260200160002082815481106120d3577f4e487b7100000000000000000000000000000000000000000000000000000000600052603260045260246000fd5b906000526020600020906004020160030160009054906101000a900473ffffffffffffffffffffffffffffffffffffffff1673ffffffffffffffffffffffffffffffffffffffff1614156123bd57600060096000848152602001908152602001600020828154811061216e577f4e487b7100000000000000000000000000000000000000000000000000000000600052603260045260246000fd5b9060005260206000209060040201604051806080016040529081600082018054612197906152d8565b80601f01602080910402602001604051908101604052809291908181526020018280546121c3906152d8565b80156122105780601f106121e557610100808354040283529160200191612210565b820191906000526020600020905b8154815290600101906020018083116121f357829003601f168201915b50505050508152602001600182018054612229906152d8565b80601f0160208091040260200160405190810160405280929190818152602001828054612255906152d8565b80156122a25780601f10612277576101008083540402835291602001916122a2565b820191906000526020600020905b81548152906001019060200180831161228557829003601f168201915b50505050508152602001600282015481526020016003820160009054906101000a900473ffffffffffffffffffffffffffffffffffffffff1673ffffffffffffffffffffffffffffffffffffffff1673ffffffffffffffffffffffffffffffffffffffff168152505090506040518060e00160405280826000015181526020018260200151815260200182604001518152602001826060015173ffffffffffffffffffffffffffffffffffffffff168152602001848152602001838152602001600015158152508585815181106123a2577f4e487b7100000000000000000000000000000000000000000000000000000000600052603260045260246000fd5b602002602001018190525083806123b89061533b565b945050505b80806123c89061533b565b915050612053565b5080806123dc9061533b565b915050612043565b5081935050505090565b6060600180546123fd906152d8565b80601f0160208091040260200160405190810160405280929190818152602001828054612429906152d8565b80156124765780601f1061244b57610100808354040283529160200191612476565b820191906000526020600020905b81548152906001019060200180831161245957829003601f168201915b5050505050905090565b8261248a8161104d565b6124c9576040517f08c379a00000000000000000000000000000000000000000000000000000000081526004016124c090614cff565b60405180910390fd5b60006040518060800160405280858152602001848152602001600081526020013373ffffffffffffffffffffffffffffffffffffffff16815250905060096000868152602001908152602001600020819080600181540180825580915050600190039060005260206000209060040201600090919091909150600082015181600001908051906020019061255e929190613f13565b50602082015181600101908051906020019061257b929190613f13565b506040820151816002015560608201518160030160006101000a81548173ffffffffffffffffffffffffffffffffffffffff021916908373ffffffffffffffffffffffffffffffffffffffff16021790555050506000600160096000888152602001908152602001600020805490506125f491906151ee565b90507f04170ca9f141c94bf640b8c0965408d253bac3efacfb738e0f90ba9f5c59227733868360405161262993929190614c40565b60405180910390a1505050505050565b61264b6126446132a3565b83836136a9565b5050565b60008061265b33611556565b11905090565b818161266d82826129e6565b6126ac576040517f08c379a00000000000000000000000000000000000000000000000000000000081526004016126a390614d9f565b60405180910390fd5b6001600a600086815260200190815260200160002060003373ffffffffffffffffffffffffffffffffffffffff1673ffffffffffffffffffffffffffffffffffffffff168152602001908152602001600020600085815260200190815260200160002060006101000a81548160ff021916908315150217905550600960008581526020019081526020016000208381548110612771577f4e487b7100000000000000000000000000000000000000000000000000000000600052603260045260246000fd5b906000526020600020906004020160020160008154809291906127939061533b565b919050555050505050565b6127af6127a96132a3565b83613364565b6127ee576040517f08c379a00000000000000000000000000000000000000000000000000000000081526004016127e590614fbf565b60405180910390fd5b6127fa84848484613816565b50505050565b606061280b82613237565b61284a576040517f08c379a000000000000000000000000000000000000000000000000000000000815260040161284190614f3f565b60405180910390fd5b600060066000848152602001908152602001600020805461286a906152d8565b80601f0160208091040260200160405190810160405280929190818152602001828054612896906152d8565b80156128e35780601f106128b8576101008083540402835291602001916128e3565b820191906000526020600020905b8154815290600101906020018083116128c657829003601f168201915b5050505050905060006128f4613872565b905060008151141561290a57819250505061294d565b60008251111561293f578082604051602001612927929190614bb5565b6040516020818303038152906040529250505061294d565b61294884613889565b925050505b919050565b6000600560008473ffffffffffffffffffffffffffffffffffffffff1673ffffffffffffffffffffffffffffffffffffffff16815260200190815260200160002060008373ffffffffffffffffffffffffffffffffffffffff1673ffffffffffffffffffffffffffffffffffffffff16815260200190815260200160002060009054906101000a900460ff16905092915050565b60006008805490508310612a2f576040517f08c379a0000000000000000000000000000000000000000000000000000000008152600401612a2690614e7f565b60405180910390fd5b60096000848152602001908152602001600020805490508210612a87576040517f08c379a0000000000000000000000000000000000000000000000000000000008152600401612a7e90614d7f565b60405180910390fd5b3373ffffffffffffffffffffffffffffffffffffffff16600960008581526020019081526020016000208381548110612ae9577f4e487b7100000000000000000000000000000000000000000000000000000000600052603260045260246000fd5b906000526020600020906004020160030160009054906101000a900473ffffffffffffffffffffffffffffffffffffffff1673ffffffffffffffffffffffffffffffffffffffff161415612b72576040517f08c379a0000000000000000000000000000000000000000000000000000000008152600401612b6990614eff565b60405180910390fd5b600060088481548110612bae577f4e487b7100000000000000000000000000000000000000000000000000000000600052603260045260246000fd5b90600052602060002090600502016040518060c0016040529081600082018054612bd7906152d8565b80601f0160208091040260200160405190810160405280929190818152602001828054612c03906152d8565b8015612c505780601f10612c2557610100808354040283529160200191612c50565b820191906000526020600020905b815481529060010190602001808311612c3357829003601f168201915b50505050508152602001600182018054612c69906152d8565b80601f0160208091040260200160405190810160405280929190818152602001828054612c95906152d8565b8015612ce25780601f10612cb757610100808354040283529160200191612ce2565b820191906000526020600020905b815481529060010190602001808311612cc557829003601f168201915b505050505081526020016002820160009054906101000a900473ffffffffffffffffffffffffffffffffffffffff1673ffffffffffffffffffffffffffffffffffffffff1673ffffffffffffffffffffffffffffffffffffffff1681526020016003820160009054906101000a900473ffffffffffffffffffffffffffffffffffffffff1673ffffffffffffffffffffffffffffffffffffffff1673ffffffffffffffffffffffffffffffffffffffff1681526020016003820160149054906101000a900460ff161515151581526020016004820160009054906101000a900473ffffffffffffffffffffffffffffffffffffffff1673ffffffffffffffffffffffffffffffffffffffff1673ffffffffffffffffffffffffffffffffffffffff1681525050905060008073ffffffffffffffffffffffffffffffffffffffff1660088681548110612e5d577f4e487b7100000000000000000000000000000000000000000000000000000000600052603260045260246000fd5b906000526020600020906005020160020160009054906101000a900473ffffffffffffffffffffffffffffffffffffffff1673ffffffffffffffffffffffffffffffffffffffff161415612ebe576000612eb633611556565b119050613017565b6000600b600060088881548110612efe577f4e487b7100000000000000000000000000000000000000000000000000000000600052603260045260246000fd5b906000526020600020906005020160020160009054906101000a900473ffffffffffffffffffffffffffffffffffffffff1673ffffffffffffffffffffffffffffffffffffffff1673ffffffffffffffffffffffffffffffffffffffff16815260200190815260200160002060009054906101000a900473ffffffffffffffffffffffffffffffffffffffff1673ffffffffffffffffffffffffffffffffffffffff166370a08231336040518263ffffffff1660e01b8152600401612fc39190614bd9565b60206040518083038186803b158015612fdb57600080fd5b505afa158015612fef573d6000803e3d6000fd5b505050506040513d601f19601f82011682018060405250810190613013919061440e565b1190505b816080015180156130255750805b801561309d5750600a600086815260200190815260200160002060003373ffffffffffffffffffffffffffffffffffffffff1673ffffffffffffffffffffffffffffffffffffffff168152602001908152602001600020600085815260200190815260200160002060009054906101000a900460ff16155b9250505092915050565b60006130b233611556565b146130f2576040517f08c379a00000000000000000000000000000000000000000000000000000000081526004016130e990614fdf565b60405180910390fd5b60006130fe6007613930565b905061310a338261393e565b60006064424461311a9190615167565b6131249190615384565b90506041811080156131365750602d81115b1561317f5761317a826040518060400160405280601d81526020017f68747470733a2f2f6a736f6e6b65657065722e636f6d2f622f394b4a4d000000815250613b18565b6131bf565b6131be826040518060400160405280601d81526020017f68747470733a2f2f6a736f6e6b65657065722e636f6d2f622f58454258000000815250613b18565b5b6131c96007613b8c565b5050565b60007f01ffc9a7000000000000000000000000000000000000000000000000000000007bffffffffffffffffffffffffffffffffffffffffffffffffffffffff1916827bffffffffffffffffffffffffffffffffffffffffffffffffffffffff1916149050919050565b60008073ffffffffffffffffffffffffffffffffffffffff166002600084815260200190815260200160002060009054906101000a900473ffffffffffffffffffffffffffffffffffffffff1673ffffffffffffffffffffffffffffffffffffffff1614159050919050565b600033905090565b816004600083815260200190815260200160002060006101000a81548173ffffffffffffffffffffffffffffffffffffffff021916908373ffffffffffffffffffffffffffffffffffffffff160217905550808273ffffffffffffffffffffffffffffffffffffffff1661331e836114a4565b73ffffffffffffffffffffffffffffffffffffffff167f8c5be1e5ebec7d5bd14f71427d1e84f3dd0314c0f7b2291e5b200ac8c7c3b92560405160405180910390a45050565b600061336f82613237565b6133ae576040517f08c379a00000000000000000000000000000000000000000000000000000000081526004016133a590614e3f565b60405180910390fd5b60006133b9836114a4565b90508073ffffffffffffffffffffffffffffffffffffffff168473ffffffffffffffffffffffffffffffffffffffff1614806133fb57506133fa8185612952565b5b8061343957508373ffffffffffffffffffffffffffffffffffffffff1661342184610668565b73ffffffffffffffffffffffffffffffffffffffff16145b91505092915050565b8273ffffffffffffffffffffffffffffffffffffffff16613462826114a4565b73ffffffffffffffffffffffffffffffffffffffff16146134b8576040517f08c379a00000000000000000000000000000000000000000000000000000000081526004016134af90614d3f565b60405180910390fd5b600073ffffffffffffffffffffffffffffffffffffffff168273ffffffffffffffffffffffffffffffffffffffff161415613528576040517f08c379a000000000000000000000000000000000000000000000000000000000815260040161351f90614dff565b60405180910390fd5b613533838383613ba2565b61353e6000826132ab565b6001600360008573ffffffffffffffffffffffffffffffffffffffff1673ffffffffffffffffffffffffffffffffffffffff168152602001908152602001600020600082825461358e91906151ee565b925050819055506001600360008473ffffffffffffffffffffffffffffffffffffffff1673ffffffffffffffffffffffffffffffffffffffff16815260200190815260200160002060008282546135e59190615167565b92505081905550816002600083815260200190815260200160002060006101000a81548173ffffffffffffffffffffffffffffffffffffffff021916908373ffffffffffffffffffffffffffffffffffffffff160217905550808273ffffffffffffffffffffffffffffffffffffffff168473ffffffffffffffffffffffffffffffffffffffff167fddf252ad1be2c89b69c2b068fc378daa952ba7f163c4a11628f55a4df523b3ef60405160405180910390a46136a4838383613ba7565b505050565b8173ffffffffffffffffffffffffffffffffffffffff168373ffffffffffffffffffffffffffffffffffffffff161415613718576040517f08c379a000000000000000000000000000000000000000000000000000000000815260040161370f90614e1f565b60405180910390fd5b80600560008573ffffffffffffffffffffffffffffffffffffffff1673ffffffffffffffffffffffffffffffffffffffff16815260200190815260200160002060008473ffffffffffffffffffffffffffffffffffffffff1673ffffffffffffffffffffffffffffffffffffffff16815260200190815260200160002060006101000a81548160ff0219169083151502179055508173ffffffffffffffffffffffffffffffffffffffff168373ffffffffffffffffffffffffffffffffffffffff167f17307eab39ab6107e8899845ad3d59bd9653f200f220920489ca2b5937696c31836040516138099190614cc2565b60405180910390a3505050565b613821848484613442565b61382d84848484613bac565b61386c576040517f08c379a000000000000000000000000000000000000000000000000000000000815260040161386390614d1f565b60405180910390fd5b50505050565b606060405180602001604052806000815250905090565b606061389482613237565b6138d3576040517f08c379a00000000000000000000000000000000000000000000000000000000081526004016138ca90614f7f565b60405180910390fd5b60006138dd613872565b905060008151116138fd5760405180602001604052806000815250613928565b8061390784613d43565b604051602001613918929190614bb5565b6040516020818303038152906040525b915050919050565b600081600001549050919050565b600073ffffffffffffffffffffffffffffffffffffffff168273ffffffffffffffffffffffffffffffffffffffff1614156139ae576040517f08c379a00000000000000000000000000000000000000000000000000000000081526004016139a590614f1f565b60405180910390fd5b6139b781613237565b156139f7576040517f08c379a00000000000000000000000000000000000000000000000000000000081526004016139ee90614d5f565b60405180910390fd5b613a0360008383613ba2565b6001600360008473ffffffffffffffffffffffffffffffffffffffff1673ffffffffffffffffffffffffffffffffffffffff1681526020019081526020016000206000828254613a539190615167565b92505081905550816002600083815260200190815260200160002060006101000a81548173ffffffffffffffffffffffffffffffffffffffff021916908373ffffffffffffffffffffffffffffffffffffffff160217905550808273ffffffffffffffffffffffffffffffffffffffff16600073ffffffffffffffffffffffffffffffffffffffff167fddf252ad1be2c89b69c2b068fc378daa952ba7f163c4a11628f55a4df523b3ef60405160405180910390a4613b1460008383613ba7565b5050565b613b2182613237565b613b60576040517f08c379a0000000000000000000000000000000000000000000000000000000008152600401613b5790614edf565b60405180910390fd5b80600660008481526020019081526020016000209080519060200190613b87929190613f13565b505050565b6001816000016000828254019250508190555050565b505050565b505050565b6000613bcd8473ffffffffffffffffffffffffffffffffffffffff16613ef0565b15613d36578373ffffffffffffffffffffffffffffffffffffffff1663150b7a02613bf66132a3565b8786866040518563ffffffff1660e01b8152600401613c189493929190614bf4565b602060405180830381600087803b158015613c3257600080fd5b505af1925050508015613c6357506040513d601f19601f82011682018060405250810190613c609190614329565b60015b613ce6573d8060008114613c93576040519150601f19603f3d011682016040523d82523d6000602084013e613c98565b606091505b50600081511415613cde576040517f08c379a0000000000000000000000000000000000000000000000000000000008152600401613cd590614d1f565b60405180910390fd5b805181602001fd5b63150b7a0260e01b7bffffffffffffffffffffffffffffffffffffffffffffffffffffffff1916817bffffffffffffffffffffffffffffffffffffffffffffffffffffffff191614915050613d3b565b600190505b949350505050565b60606000821415613d8b576040518060400160405280600181526020017f30000000000000000000000000000000000000000000000000000000000000008152509050613eeb565b600082905060005b60008214613dbd578080613da69061533b565b915050600a82613db691906151bd565b9150613d93565b60008167ffffffffffffffff811115613dff577f4e487b7100000000000000000000000000000000000000000000000000000000600052604160045260246000fd5b6040519080825280601f01601f191660200182016040528015613e315781602001600182028036833780820191505090505b5090505b60008514613ee457600182613e4a91906151ee565b9150600a85613e599190615384565b6030613e659190615167565b60f81b818381518110613ea1577f4e487b7100000000000000000000000000000000000000000000000000000000600052603260045260246000fd5b60200101907effffffffffffffffffffffffffffffffffffffffffffffffffffffffffffff1916908160001a905350600a85613edd91906151bd565b9450613e35565b8093505050505b919050565b6000808273ffffffffffffffffffffffffffffffffffffffff163b119050919050565b828054613f1f906152d8565b90600052602060002090601f016020900481019282613f415760008555613f88565b82601f10613f5a57805160ff1916838001178555613f88565b82800160010185558215613f88579182015b82811115613f87578251825591602001919060010190613f6c565b5b509050613f959190613fee565b5090565b6040518060e00160405280606081526020016060815260200160008152602001600073ffffffffffffffffffffffffffffffffffffffff16815260200160008152602001600081526020016000151581525090565b5b80821115614007576000816000905550600101613fef565b5090565b600061401e6140198461503f565b61501a565b90508281526020810184848401111561403657600080fd5b614041848285615296565b509392505050565b600061405c61405784615070565b61501a565b90508281526020810184848401111561407457600080fd5b61407f848285615296565b509392505050565b60008135905061409681615aba565b92915050565b6000813590506140ab81615ad1565b92915050565b6000813590506140c081615ae8565b92915050565b6000815190506140d581615ae8565b92915050565b600082601f8301126140ec57600080fd5b81356140fc84826020860161400b565b91505092915050565b600082601f83011261411657600080fd5b8135614126848260208601614049565b91505092915050565b60008135905061413e81615aff565b92915050565b60008151905061415381615aff565b92915050565b60006020828403121561416b57600080fd5b600061417984828501614087565b91505092915050565b6000806040838503121561419557600080fd5b60006141a385828601614087565b92505060206141b485828601614087565b9150509250929050565b6000806000606084860312156141d357600080fd5b60006141e186828701614087565b93505060206141f286828701614087565b92505060406142038682870161412f565b9150509250925092565b6000806000806080858703121561422357600080fd5b600061423187828801614087565b945050602061424287828801614087565b93505060406142538782880161412f565b925050606085013567ffffffffffffffff81111561427057600080fd5b61427c878288016140db565b91505092959194509250565b6000806040838503121561429b57600080fd5b60006142a985828601614087565b92505060206142ba8582860161409c565b9150509250929050565b600080604083850312156142d757600080fd5b60006142e585828601614087565b92505060206142f68582860161412f565b9150509250929050565b60006020828403121561431257600080fd5b6000614320848285016140b1565b91505092915050565b60006020828403121561433b57600080fd5b6000614349848285016140c6565b91505092915050565b6000806000806080858703121561436857600080fd5b600085013567ffffffffffffffff81111561438257600080fd5b61438e87828801614105565b945050602085013567ffffffffffffffff8111156143ab57600080fd5b6143b787828801614105565b93505060406143c887828801614087565b92505060606143d987828801614087565b91505092959194509250565b6000602082840312156143f757600080fd5b60006144058482850161412f565b91505092915050565b60006020828403121561442057600080fd5b600061442e84828501614144565b91505092915050565b60008060006060848603121561444c57600080fd5b600061445a8682870161412f565b935050602084013567ffffffffffffffff81111561447757600080fd5b61448386828701614105565b925050604084013567ffffffffffffffff8111156144a057600080fd5b6144ac86828701614105565b9150509250925092565b600080604083850312156144c957600080fd5b60006144d78582860161412f565b92505060206144e88582860161412f565b9150509250929050565b60006144fe8383614a64565b905092915050565b60006145128383614af4565b905092915050565b61452381615222565b82525050565b61453281615222565b82525050565b6000614543826150c1565b61454d8185615107565b93508360208202850161455f856150a1565b8060005b8581101561459b578484038952815161457c85826144f2565b9450614587836150ed565b925060208a01995050600181019050614563565b50829750879550505050505092915050565b60006145b8826150cc565b6145c28185615118565b9350836020820285016145d4856150b1565b8060005b8581101561461057848403895281516145f18582614506565b94506145fc836150fa565b925060208a019950506001810190506145d8565b50829750879550505050505092915050565b61462b81615234565b82525050565b61463a81615234565b82525050565b600061464b826150d7565b6146558185615129565b93506146658185602086016152a5565b61466e81615471565b840191505092915050565b6000614684826150e2565b61468e818561513a565b935061469e8185602086016152a5565b6146a781615471565b840191505092915050565b60006146bd826150e2565b6146c7818561514b565b93506146d78185602086016152a5565b6146e081615471565b840191505092915050565b60006146f6826150e2565b614700818561515c565b93506147108185602086016152a5565b80840191505092915050565b600061472960288361514b565b915061473482615482565b604082019050919050565b600061474c60328361514b565b9150614757826154d1565b604082019050919050565b600061476f60258361514b565b915061477a82615520565b604082019050919050565b6000614792601c8361514b565b915061479d8261556f565b602082019050919050565b60006147b5600b8361514b565b91506147c082615598565b602082019050919050565b60006147d8602e8361514b565b91506147e3826155c1565b604082019050919050565b60006147fb601b8361514b565b915061480682615610565b602082019050919050565b600061481e60158361514b565b915061482982615639565b602082019050919050565b600061484160248361514b565b915061484c82615662565b604082019050919050565b600061486460198361514b565b915061486f826156b1565b602082019050919050565b6000614887602c8361514b565b9150614892826156da565b604082019050919050565b60006148aa60388361514b565b91506148b582615729565b604082019050919050565b60006148cd60108361514b565b91506148d882615778565b602082019050919050565b60006148f0602a8361514b565b91506148fb826157a1565b604082019050919050565b600061491360298361514b565b915061491e826157f0565b604082019050919050565b6000614936602e8361514b565b91506149418261583f565b604082019050919050565b600061495960178361514b565b91506149648261588e565b602082019050919050565b600061497c60208361514b565b9150614987826158b7565b602082019050919050565b600061499f60318361514b565b91506149aa826158e0565b604082019050919050565b60006149c2602c8361514b565b91506149cd8261592f565b604082019050919050565b60006149e5602f8361514b565b91506149f08261597e565b604082019050919050565b6000614a0860218361514b565b9150614a13826159cd565b604082019050919050565b6000614a2b60318361514b565b9150614a3682615a1c565b604082019050919050565b6000614a4e60228361514b565b9150614a5982615a6b565b604082019050919050565b600060c0830160008301518482036000860152614a818282614679565b91505060208301518482036020860152614a9b8282614679565b9150506040830151614ab0604086018261451a565b506060830151614ac3606086018261451a565b506080830151614ad66080860182614622565b5060a0830151614ae960a086018261451a565b508091505092915050565b600060e0830160008301518482036000860152614b118282614679565b91505060208301518482036020860152614b2b8282614679565b9150506040830151614b406040860182614b97565b506060830151614b53606086018261451a565b506080830151614b666080860182614b97565b5060a0830151614b7960a0860182614b97565b5060c0830151614b8c60c0860182614622565b508091505092915050565b614ba08161528c565b82525050565b614baf8161528c565b82525050565b6000614bc182856146eb565b9150614bcd82846146eb565b91508190509392505050565b6000602082019050614bee6000830184614529565b92915050565b6000608082019050614c096000830187614529565b614c166020830186614529565b614c236040830185614ba6565b8181036060830152614c358184614640565b905095945050505050565b6000606082019050614c556000830186614529565b8181036020830152614c6781856146b2565b9050614c766040830184614ba6565b949350505050565b60006020820190508181036000830152614c988184614538565b905092915050565b60006020820190508181036000830152614cba81846145ad565b905092915050565b6000602082019050614cd76000830184614631565b92915050565b60006020820190508181036000830152614cf781846146b2565b905092915050565b60006020820190508181036000830152614d188161471c565b9050919050565b60006020820190508181036000830152614d388161473f565b9050919050565b60006020820190508181036000830152614d5881614762565b9050919050565b60006020820190508181036000830152614d7881614785565b9050919050565b60006020820190508181036000830152614d98816147a8565b9050919050565b60006020820190508181036000830152614db8816147cb565b9050919050565b60006020820190508181036000830152614dd8816147ee565b9050919050565b60006020820190508181036000830152614df881614811565b9050919050565b60006020820190508181036000830152614e1881614834565b9050919050565b60006020820190508181036000830152614e3881614857565b9050919050565b60006020820190508181036000830152614e588161487a565b9050919050565b60006020820190508181036000830152614e788161489d565b9050919050565b60006020820190508181036000830152614e98816148c0565b9050919050565b60006020820190508181036000830152614eb8816148e3565b9050919050565b60006020820190508181036000830152614ed881614906565b9050919050565b60006020820190508181036000830152614ef881614929565b9050919050565b60006020820190508181036000830152614f188161494c565b9050919050565b60006020820190508181036000830152614f388161496f565b9050919050565b60006020820190508181036000830152614f5881614992565b9050919050565b60006020820190508181036000830152614f78816149b5565b9050919050565b60006020820190508181036000830152614f98816149d8565b9050919050565b60006020820190508181036000830152614fb8816149fb565b9050919050565b60006020820190508181036000830152614fd881614a1e565b9050919050565b60006020820190508181036000830152614ff881614a41565b9050919050565b60006020820190506150146000830184614ba6565b92915050565b6000615024615035565b9050615030828261530a565b919050565b6000604051905090565b600067ffffffffffffffff82111561505a57615059615442565b5b61506382615471565b9050602081019050919050565b600067ffffffffffffffff82111561508b5761508a615442565b5b61509482615471565b9050602081019050919050565b6000819050602082019050919050565b6000819050602082019050919050565b600081519050919050565b600081519050919050565b600081519050919050565b600081519050919050565b6000602082019050919050565b6000602082019050919050565b600082825260208201905092915050565b600082825260208201905092915050565b600082825260208201905092915050565b600082825260208201905092915050565b600082825260208201905092915050565b600081905092915050565b60006151728261528c565b915061517d8361528c565b9250827fffffffffffffffffffffffffffffffffffffffffffffffffffffffffffffffff038211156151b2576151b16153b5565b5b828201905092915050565b60006151c88261528c565b91506151d38361528c565b9250826151e3576151e26153e4565b5b828204905092915050565b60006151f98261528c565b91506152048361528c565b925082821015615217576152166153b5565b5b828203905092915050565b600061522d8261526c565b9050919050565b60008115159050919050565b60007fffffffff0000000000000000000000000000000000000000000000000000000082169050919050565b600073ffffffffffffffffffffffffffffffffffffffff82169050919050565b6000819050919050565b82818337600083830152505050565b60005b838110156152c35780820151818401526020810190506152a8565b838111156152d2576000848401525b50505050565b600060028204905060018216806152f057607f821691505b6020821081141561530457615303615413565b5b50919050565b61531382615471565b810181811067ffffffffffffffff8211171561533257615331615442565b5b80604052505050565b60006153468261528c565b91507fffffffffffffffffffffffffffffffffffffffffffffffffffffffffffffffff821415615379576153786153b5565b5b600182019050919050565b600061538f8261528c565b915061539a8361528c565b9250826153aa576153a96153e4565b5b828206905092915050565b7f4e487b7100000000000000000000000000000000000000000000000000000000600052601160045260246000fd5b7f4e487b7100000000000000000000000000000000000000000000000000000000600052601260045260246000fd5b7f4e487b7100000000000000000000000000000000000000000000000000000000600052602260045260246000fd5b7f4e487b7100000000000000000000000000000000000000000000000000000000600052604160045260246000fd5b6000601f19601f8301169050919050565b7f596f75206e65656420746f20626520612068756e74657220666f72207468697360008201527f20616374696f6e2e000000000000000000000000000000000000000000000000602082015250565b7f4552433732313a207472616e7366657220746f206e6f6e20455243373231526560008201527f63656976657220696d706c656d656e7465720000000000000000000000000000602082015250565b7f4552433732313a207472616e736665722066726f6d20696e636f72726563742060008201527f6f776e6572000000000000000000000000000000000000000000000000000000602082015250565b7f4552433732313a20746f6b656e20616c7265616479206d696e74656400000000600082015250565b7f496e76616c696420554944000000000000000000000000000000000000000000600082015250565b7f596f752063616e277420766f7465206f72206861766520616c7265616479206360008201527f61737420796f757220766f74652e000000000000000000000000000000000000602082015250565b7f596f7520617265206e6f742074686520426f6172642041646d696e0000000000600082015250565b7f596f7520617265206e6f7420612048756e7465722e0000000000000000000000600082015250565b7f4552433732313a207472616e7366657220746f20746865207a65726f2061646460008201527f7265737300000000000000000000000000000000000000000000000000000000602082015250565b7f4552433732313a20617070726f766520746f2063616c6c657200000000000000600082015250565b7f4552433732313a206f70657261746f7220717565727920666f72206e6f6e657860008201527f697374656e7420746f6b656e0000000000000000000000000000000000000000602082015250565b7f4552433732313a20617070726f76652063616c6c6572206973206e6f74206f7760008201527f6e6572206e6f7220617070726f76656420666f7220616c6c0000000000000000602082015250565b7f496e76616c696420426f61726420494400000000000000000000000000000000600082015250565b7f4552433732313a2062616c616e636520717565727920666f7220746865207a6560008201527f726f206164647265737300000000000000000000000000000000000000000000602082015250565b7f4552433732313a206f776e657220717565727920666f72206e6f6e657869737460008201527f656e7420746f6b656e0000000000000000000000000000000000000000000000602082015250565b7f45524337323155524953746f726167653a2055524920736574206f66206e6f6e60008201527f6578697374656e7420746f6b656e000000000000000000000000000000000000602082015250565b7f596f752063616e277420766f746520796f757273656c66000000000000000000600082015250565b7f4552433732313a206d696e7420746f20746865207a65726f2061646472657373600082015250565b7f45524337323155524953746f726167653a2055524920717565727920666f722060008201527f6e6f6e6578697374656e7420746f6b656e000000000000000000000000000000602082015250565b7f4552433732313a20617070726f76656420717565727920666f72206e6f6e657860008201527f697374656e7420746f6b656e0000000000000000000000000000000000000000602082015250565b7f4552433732314d657461646174613a2055524920717565727920666f72206e6f60008201527f6e6578697374656e7420746f6b656e0000000000000000000000000000000000602082015250565b7f4552433732313a20617070726f76616c20746f2063757272656e74206f776e6560008201527f7200000000000000000000000000000000000000000000000000000000000000602082015250565b7f4552433732313a207472616e736665722063616c6c6572206973206e6f74206f60008201527f776e6572206e6f7220617070726f766564000000000000000000000000000000602082015250565b7f596f752063616e20627579206f6e6c79206f6e652048756e74657220546f6b6560008201527f6e2e000000000000000000000000000000000000000000000000000000000000602082015250565b615ac381615222565b8114615ace57600080fd5b50565b615ada81615234565b8114615ae557600080fd5b50565b615af181615240565b8114615afc57600080fd5b50565b615b088161528c565b8114615b1357600080fd5b5056fea2646970667358221220ddd0f0dfd753472ab0b2362f4e57281edc19aefb527fdaa0ff0d31f01e7ca02c64736f6c63430008040033546865204461696c7920426f617264206973207468652067656e6572616c20696465617320626f61726420666561747572696e672069646561732066726f6d20616c6c2048756e746572732e",
    "linkReferences": {},
    "deployedLinkReferences": {}
}